:020000040000FA
:06000000CAEF00F012003F
:020006000000F8
:0800080003D81DD8FED7120039
:100010008F0ED3147009D36E926A896A0F013891DA
:100020008090826A949449914993FA0EBB6EF00EC7
:10003000BD140C09BD6ECF0EBD140009BD6EBE6AA5
:10004000BC6ABA841200D9CFE6FFE1CFD9FF040E13
:10005000E126B00EDE6EDD68020EDB6A030EDB6A9F
:10006000DECFBEFFDDCFBFFFB00EDE6EDD68DECFC0
:1000700002F0DDCF03F0FF0E025CFF0E035821E219
:10008000020EDB6A030EDB6A020EDBCF02F0030E08
:10009000DBCF03F0D890035004E6100E025C270E6D
:1000A000035806E2020EDB2A030E01E3DB2AECD73B
:1000B000DECFBEFFDDCFBFFFDF2A010E01E3DB2A6B
:1000C000D6D7040EE15C02E2E16AE552E16EE55248
:0600D000E7CFD9FF12008A
:0A00D600060EF66E000EF76E000E27
:1000E000F86E00010900F550656F0900F550666F64
:1000F00003E1656701D03DD00900F550606F09004C
:10010000F550616F0900F550626F09000900F55064
:10011000E96E0900F550EA6E090009000900F55082
:10012000636F0900F550646F09000900F6CF67F0AE
:10013000F7CF68F0F8CF69F060C0F6FF61C0F7FF55
:1001400062C0F8FF0001635302E1645307E0090055
:10015000F550EE6E6307F8E26407F9D767C0F6FF63
:1001600068C0F7FF69C0F8FF00016507000E665B15
:04017000BFD71200E3
:0C017400000EF36E00EE00F0060E01D845
:100180001200EA6002D0EE6AFCD7F350E960120078
:04019000EE6AFCD740
:0C01940015EE00F025EE00F0F86A019C6A
:1001A0006BEC00F0D8EC00F004EC00F0FBD7120090
:0201B00012003B
:020000040030CA
:01000100E816
:010003003CC0
:00000001FF
